:1000000045C0000058C0000056C0000054C00000A9
:1000100052C0000050C000004EC000004CC00000A4
:100020004AC0000048C0000046C0000044C00000B4
:1000300042C0000040C000003EC000003CC00000C4
:100040003AC0000038C0000036C0000034C00000D4
:1000500032C0000030C000002EC000002CC00000E4
:100060002AC0000028C0000026C0000024C00000F4
:1000700022C0000020C000001EC000001CC0000004
:100080001AC0000018C0000016C0000011241FBED6
:10009000CFEFD0E1DEBFCDBF11E0A0E0B1E0EAE0FC
:1000A000F2E000E00BBF02C007900D92AC30B10748
:1000B000D9F78ED0A8C0A4CFC79A85E08A95F1F76A
:1000C0000000C79885E38A95F1F700000895C59A66
:1000D00065BBF2DF87EC90E00197F1F700C000000C
:1000E0000895C59865BBE8DF87EC90E00197F1F7CC
:1000F00000C00000089561E0F4DF2FEF86E791E093
:10010000215080409040E1F700C000000895CF9357
:10011000DF93EC012FEF81EE94E02150804090407E
:10012000E1F700C000008FEF84BB15BA87B3806E83
:1001300087BBC69868E3CE01D4DF8FE39CE90197C3
:10014000F1F700C00000C69868E3CE01CADF8FE374
:100150009CE90197F1F700C00000C69868E3CE0162
:10016000C0DF8FE39CE90197F1F700C000006CE06D
:10017000CE01B7DFCE01BFDF66E0CE01B2DFDF9197
:10018000CF910895EF92FF920F931F93CF93FB01AE
:100190006081662361F08F017C01C0E0C70197DFB9
:1001A000CF5FF801EC0FF11D60816111F7CFCF91A6
:1001B0001F910F91FF90EF900895262F2170642FCB
:1001C0006F7030E4239F600D112460588ACF08952A
:1001D000CF93DF93CDB7DEB7A0970FB6F894DEBF0D
:1001E0000FBECDBFCE01019692DFCE01019683DF17
:1001F00040E060E0CE010196E0DF60E071E0CE011A
:0A0200000196C0DFFFCFF894FFCF96
:0C020A0048656C6C6F576F6C72640000EC
:00000001FF
